{
  "contractName": "SupplyChain",
  "abi": [
    {
      "inputs": [],
      "stateMutability": "nonpayable",
      "type": "constructor"
    },
    {
      "inputs": [
        {
          "internalType": "string",
          "name": "",
          "type": "string"
        }
      ],
      "name": "name2Add",
      "outputs": [
        {
          "internalType": "address",
          "name": "",
          "type": "address"
        }
      ],
      "stateMutability": "view",
      "type": "function",
      "constant": true
    },
    {
      "inputs": [
        {
          "internalType": "bytes",
          "name": "data",
          "type": "bytes"
        }
      ],
      "name": "toString",
      "outputs": [
        {
          "internalType": "string",
          "name": "",
          "type": "string"
        }
      ],
      "stateMutability": "pure",
      "type": "function",
      "constant": true
    },
    {
      "inputs": [
        {
          "internalType": "address",
          "name": "uid",
          "type": "address"
        },
        {
          "internalType": "string",
          "name": "name",
          "type": "string"
        }
      ],
      "name": "addManufacturer",
      "outputs": [],
      "stateMutability": "nonpayable",
      "type": "function"
    },
    {
      "inputs": [
        {
          "internalType": "string",
          "name": "name",
          "type": "string"
        }
      ],
      "name": "getUID",
      "outputs": [
        {
          "internalType": "string",
          "name": "",
          "type": "string"
        }
      ],
      "stateMutability": "view",
      "type": "function",
      "constant": true
    },
    {
      "inputs": [
        {
          "internalType": "address",
          "name": "uid",
          "type": "address"
        },
        {
          "internalType": "string",
          "name": "name",
          "type": "string"
        },
        {
          "internalType": "enum SupplyChain.Type",
          "name": "part",
          "type": "uint8"
        }
      ],
      "name": "addSupplier",
      "outputs": [],
      "stateMutability": "nonpayable",
      "type": "function"
    },
    {
      "inputs": [
        {
          "internalType": "string",
          "name": "name",
          "type": "string"
        }
      ],
      "name": "addCustomer",
      "outputs": [],
      "stateMutability": "nonpayable",
      "type": "function"
    },
    {
      "inputs": [
        {
          "internalType": "uint256",
          "name": "val",
          "type": "uint256"
        }
      ],
      "name": "set_limit",
      "outputs": [],
      "stateMutability": "nonpayable",
      "type": "function"
    },
    {
      "inputs": [
        {
          "internalType": "string",
          "name": "sup_name",
          "type": "string"
        },
        {
          "internalType": "uint256",
          "name": "price",
          "type": "uint256"
        },
        {
          "internalType": "uint256",
          "name": "quantity",
          "type": "uint256"
        }
      ],
      "name": "set_bids",
      "outputs": [],
      "stateMutability": "payable",
      "type": "function",
      "payable": true
    },
    {
      "inputs": [
        {
          "internalType": "uint256",
          "name": "val",
          "type": "uint256"
        }
      ],
      "name": "set_price",
      "outputs": [],
      "stateMutability": "nonpayable",
      "type": "function"
    },
    {
      "inputs": [
        {
          "internalType": "uint256",
          "name": "quantity",
          "type": "uint256"
        }
      ],
      "name": "make_product",
      "outputs": [],
      "stateMutability": "nonpayable",
      "type": "function"
    },
    {
      "inputs": [
        {
          "internalType": "string",
          "name": "sname",
          "type": "string"
        }
      ],
      "name": "buy_product",
      "outputs": [],
      "stateMutability": "payable",
      "type": "function",
      "payable": true
    },
    {
      "inputs": [
        {
          "internalType": "uint256",
          "name": "id",
          "type": "uint256"
        }
      ],
      "name": "verify",
      "outputs": [
        {
          "internalType": "string[6]",
          "name": "",
          "type": "string[6]"
        }
      ],
      "stateMutability": "view",
      "type": "function",
      "constant": true
    },
    {
      "inputs": [
        {
          "internalType": "string",
          "name": "sup_name",
          "type": "string"
        }
      ],
      "name": "get_limit_name",
      "outputs": [
        {
          "internalType": "uint256",
          "name": "",
          "type": "uint256"
        }
      ],
      "stateMutability": "view",
      "type": "function",
      "constant": true
    },
    {
      "inputs": [
        {
          "internalType": "address",
          "name": "sup_add",
          "type": "address"
        }
      ],
      "name": "get_limit",
      "outputs": [
        {
          "internalType": "uint256",
          "name": "",
          "type": "uint256"
        }
      ],
      "stateMutability": "view",
      "type": "function",
      "constant": true
    },
    {
      "inputs": [],
      "name": "get_pid",
      "outputs": [
        {
          "internalType": "uint256",
          "name": "",
          "type": "uint256"
        }
      ],
      "stateMutability": "view",
      "type": "function",
      "constant": true
    },
    {
      "inputs": [
        {
          "internalType": "string",
          "name": "name",
          "type": "string"
        }
      ],
      "name": "get_price",
      "outputs": [
        {
          "internalType": "uint256",
          "name": "",
          "type": "uint256"
        }
      ],
      "stateMutability": "view",
      "type": "function",
      "constant": true
    },
    {
      "inputs": [],
      "name": "get_role",
      "outputs": [
        {
          "internalType": "uint256",
          "name": "",
          "type": "uint256"
        }
      ],
      "stateMutability": "view",
      "type": "function",
      "constant": true
    }
  ],
  "bytecode": "0x608060405234801561001057600080fd5b50600380546001600160a01b03191633179055613811806100326000396000f3fe6080604052600436106100ce5760003560e01c806303dd3d81146100d357806310b39159146100f557806328bf794d146101285780633a717a09146101485780634408d74c1461015d57806362d70db5146101b65780636330ac09146101d65780636ebaa503146101f65780636f21e1ac1461020b57806371aad10d1461021e5780638753367f1461024b5780638a8e0a2e1461027857806390a5e65414610298578063be028426146102ab578063d87019ca146102cb578063d9e97f90146102eb578063ec7352741461030b575b600080fd5b3480156100df57600080fd5b506100f36100ee366004613224565b61032b565b005b34801561010157600080fd5b50610115610110366004613224565b6103b4565b6040519081526020015b60405180910390f35b34801561013457600080fd5b506100f3610143366004613260565b61051f565b34801561015457600080fd5b50610115610583565b34801561016957600080fd5b5061019e610178366004613224565b8051602081830181018051600c825292820191909301209152546001600160a01b031681565b6040516001600160a01b03909116815260200161011f565b3480156101c257600080fd5b506100f36101d1366004613295565b61060f565b3480156101e257600080fd5b506101156101f1366004613224565b610773565b34801561020257600080fd5b506101156107bb565b6100f3610219366004613224565b6107ea565b34801561022a57600080fd5b5061023e6102393660046132fa565b610c46565b60405161011f9190613392565b34801561025757600080fd5b5061026b610266366004613260565b610e5e565b60405161011f91906133a5565b34801561028457600080fd5b506100f36102933660046133f2565b6112d2565b6100f36102a636600461343f565b61140f565b3480156102b757600080fd5b506100f36102c6366004613260565b611805565b3480156102d757600080fd5b506101156102e636600461348c565b611b01565b3480156102f757600080fd5b5061023e610306366004613224565b611b49565b34801561031757600080fd5b506100f3610326366004613260565b611b9e565b6040805160608101825233808252602080830185815260038486015260009283526006909152929020815181546001600160a01b0319166001600160a01b0390911617815591519091829160018201906103859082613546565b50604082015160028201805460ff191660018360038111156103a9576103a96134a7565b021790555050505050565b60008060046000600c856040516103cb9190613605565b9081526040805160209281900383019020546001600160a01b03908116845283830194909452918201600020825160a08101909352805490931682526001830180549293929184019161041d906134bd565b80601f0160208091040260200160405190810160405280929190818152602001828054610449906134bd565b80156104965780601f1061046b57610100808354040283529160200191610496565b820191906000526020600020905b81548152906001019060200180831161047957829003601f168201915b50505091835250506002820154602082015260038083015460409092019160ff16908111156104c7576104c76134a7565b60038111156104d8576104d86134a7565b81526020016003820160019054906101000a900460ff166001811115610500576105006134a7565b6001811115610511576105116134a7565b905250604001519392505050565b60023360009081526005602052604090206002015460ff166003811115610548576105486134a7565b1461056e5760405162461bcd60e51b815260040161056590613621565b60405180910390fd5b33600090815260056020526040902060030155565b600354600090336001600160a01b03909116036105a05750600090565b600133600090815260046020526040902060039081015460ff16908111156105ca576105ca6134a7565b036105d55750600190565b60023360009081526005602052604090206002015460ff1660038111156105fe576105fe6134a7565b036106095750600290565b50600390565b6003546001600160a01b031633146106395760405162461bcd60e51b81526004016105659061364d565b6040805160a0810182526001600160a01b0385168152602081018490526000918101829052606081016001815260200183600181111561067b5761067b6134a7565b90526001600160a01b038581166000908152600460209081526040909120835181546001600160a01b0319169316929092178255820151919250829160018201906106c69082613546565b506040820151816002015560608201518160030160006101000a81548160ff021916908360038111156106fb576106fb6134a7565b0217905550608082015160038201805461ff001916610100836001811115610725576107256134a7565b021790555090505083600c8460405161073e9190613605565b90815260405190819003602001902080546001600160a01b03929092166001600160a01b031990921691909117905550505050565b600060056000600c846040516107899190613605565b9081526040805160209281900383019020546001600160a01b0316835290820192909252016000206003015492915050565b336000908152600b60205260408120805482906107da576107da613679565b9060005260206000200154905090565b600060056000600c846040516108009190613605565b9081526040805160209281900383019020546001600160a01b03908116845283830194909452918201600020825160e081019093528054909316825260018301805492939291840191610852906134bd565b80601f016020809104026020016040519081016040528092919081815260200182805461087e906134bd565b80156108cb5780601f106108a0576101008083540402835291602001916108cb565b820191906000526020600020905b8154815290600101906020018083116108ae57829003601f168201915b5050509183525050600282015460209091019060ff1660038111156108f2576108f26134a7565b6003811115610903576109036134a7565b8152602001600382015481526020016004820154815260200160058201548152602001600682015481525050905060008160c00151116109795760405162461bcd60e51b81526020600482015260116024820152704e6f204361727320417661696c61626c6560781b6044820152606401610565565b606081015161099090670de0b6b3a76400006136a5565b3410156109d15760405162461bcd60e51b815260206004820152600f60248201526e2732b2b21026b7b9329022ba3432b960891b6044820152606401610565565b60608101516109e890670de0b6b3a76400006136a5565b341115610a1a57610a1a8160600151670de0b6b3a7640000610a0a91906136a5565b610a1490346136c4565b33612012565b80516001600160a01b03166000908152600b6020526040812060c0830151610a44906001906136c4565b81548110610a5457610a54613679565b600091825260208083209091015484516001600160a01b03168352600b909152604090912080549192509080610a8c57610a8c6136d7565b6001900381819060005260206000200160009055905560056000600c85604051610ab69190613605565b9081526040805160209281900383019020546001600160a01b0316835290820192909252016000908120600601805491610aef836136ed565b9091555050336000818152600b6020908152604080832080546001818101835591855283852001869055858452600783528184206003810180546001600160a01b03191687179055825160a0810184528154815291810154938201939093526002830154918101919091526060810193909352600481018054929392608084019190610b7a906134bd565b80601f0160208091040260200160405190810160405280929190818152602001828054610ba6906134bd565b8015610bf35780601f10610bc857610100808354040283529160200191610bf3565b820191906000526020600020905b815481529060010190602001808311610bd657829003601f168201915b5050509190925250505060208181015160009081526008909152604080822060019081018054336001600160a01b0319918216811790925594830151845291909220909101805490921617905550505050565b60408051808201909152601081526f181899199a1a9b1b9c1cb0b131b232b360811b6020820152815160609190600090610c819060026136a5565b610c8c906002613704565b6001600160401b03811115610ca357610ca3613172565b6040519080825280601f01601f191660200182016040528015610ccd576020820181803683370190505b509050600360fc1b81600081518110610ce857610ce8613679565b60200101906001600160f81b031916908160001a905350600f60fb1b81600181518110610d1757610d17613679565b60200101906001600160f81b031916908160001a90535060005b8451811015610e5657826004868381518110610d4f57610d4f613679565b016020015182516001600160f81b031990911690911c60f81c908110610d7757610d77613679565b01602001516001600160f81b03191682610d928360026136a5565b610d9d906002613704565b81518110610dad57610dad613679565b60200101906001600160f81b031916908160001a90535082858281518110610dd757610dd7613679565b602091010151815160f89190911c600f16908110610df757610df7613679565b01602001516001600160f81b03191682610e128360026136a5565b610e1d906003613704565b81518110610e2d57610e2d613679565b60200101906001600160f81b031916908160001a90535080610e4e81613717565b915050610d31565b509392505050565b610e6661314b565b610e6e61314b565b600083815260076020526040902060030154336001600160a01b0390911603610eb1576040518060600160405280602381526020016137b9602391398152610ee5565b60408051808201909152601a81527910d85c881bdddb995c9cda1a5c081b9bdd081d995c9a599a595960321b602082015281525b60008381526007602052604081206004018054610f01906134bd565b80601f0160208091040260200160405190810160405280929190818152602001828054610f2d906134bd565b8015610f7a5780601f10610f4f57610100808354040283529160200191610f7a565b820191906000526020600020905b815481529060010190602001808311610f5d57829003601f168201915b5050505050905060006040518060400160405280600c81526020016b436172206272616e6420697360a01b81525090508082604051602001610fbd929190613730565b60408051808303601f1901815291815260208086019290925260008781526007835281812060018181015460029092015482845260089095529290912090910154909190336001600160a01b03909116036110355760405180606001604052806024815260200161379560249139604086015261106b565b604080518082018252601b81527a151e5c994813dddb995c9cda1a5c081b9bdd081d995c9a599a5959602a1b6020820152908601525b60008281526008602052604090206002018054611087906134bd565b80601f01602080910402602001604051908101604052809291908181526020018280546110b3906134bd565b80156111005780601f106110d557610100808354040283529160200191611100565b820191906000526020600020905b8154815290600101906020018083116110e357829003601f168201915b505050505093506040518060400160405280600d81526020016c54797265206272616e6420697360981b81525092508284604051602001611142929190613730565b60408051808303601f190181529181526060870191909152600082815260086020522060010154336001600160a01b039091160361119d5760405180606001604052806028815260200161376d6028913960808601526111d7565b60408051808201909152601f81527f43617220626f6479206f776e657273686970206e6f7420766572696669656400602082015260808601525b600081815260086020526040902060020180546111f3906134bd565b80601f016020809104026020016040519081016040528092919081815260200182805461121f906134bd565b801561126c5780601f106112415761010080835404028352916020019161126c565b820191906000526020600020905b81548152906001019060200180831161124f57829003601f168201915b505050505093506040518060400160405280601181526020017043617220626f6479206272616e6420697360781b815250925082846040516020016112b2929190613730565b60408051808303601f1901815291905260a0860152509295945050505050565b6003546001600160a01b031633146112fc5760405162461bcd60e51b81526004016105659061364d565b6040805160e0810182526001600160a01b0384811680835260208084018681526002858701526000606086018190526080860181905260a0860181905260c086018190529283526005909152939020825181546001600160a01b031916921691909117815591519091829160018201906113769082613546565b50604082015160028201805460ff1916600183600381111561139a5761139a6134a7565b0217905550606082015181600301556080820151816004015560a0820151816005015560c0820151816006015590505082600c836040516113db9190613605565b90815260405190819003602001902080546001600160a01b03929092166001600160a01b0319909216919091179055505050565b336000908152600560209081526040808320815160e0810190925280546001600160a01b03168252600181018054929391929184019161144e906134bd565b80601f016020809104026020016040519081016040528092919081815260200182805461147a906134bd565b80156114c75780601f1061149c576101008083540402835291602001916114c7565b820191906000526020600020905b8154815290600101906020018083116114aa57829003601f168201915b5050509183525050600282015460209091019060ff1660038111156114ee576114ee6134a7565b60038111156114ff576114ff6134a7565b81526003820154602082015260048201546040820152600582015460608201526006909101546080909101529050600281604001516003811115611545576115456134a7565b146115625760405162461bcd60e51b815260040161056590613621565b61156b846103b4565b6000036115be5761157c3433612012565b60405162461bcd60e51b815260206004820152601760248201527614dd5c1c1b1e595c881b1a5b5a5d08195e1a185cdd1959604a1b6044820152606401610565565b6115c883836136a5565b6115da90670de0b6b3a76400006136a5565b3410156116205760405162461bcd60e51b8152602060048201526014602482015273496e73756666696369656e742062616c616e636560601b6044820152606401610565565b61162a83836136a5565b61163c90670de0b6b3a76400006136a5565b3411156116625761166261165084846136a5565b610a0a90670de0b6b3a76400006136a5565b60005b6009856040516116759190613605565b9081526040519081900360200190205481101561173957336001600160a01b03166009866040516116a69190613605565b908152602001604051809103902082815481106116c5576116c5613679565b60009182526020909120600160049092020101546001600160a01b0316036117275760405162461bcd60e51b8152602060048201526015602482015274109a5919195c88105b1c9958591e48141b1858d959605a1b6044820152606401610565565b8061173181613717565b915050611665565b506000604051806080016040528060026000815461175690613717565b919050819055815260200183600001516001600160a01b031681526020018481526020018581525090506009856040516117909190613605565b908152604080516020928190038301902080546001808201835560009283529184902085516004909202019081559284015190830180546001600160a01b0319166001600160a01b03909216919091179055820151600282015560608201516003909101556117fe856120b9565b5050505050565b336000908152600460209081526040808320815160a0810190925280546001600160a01b031682526001810180549293919291840191611844906134bd565b80601f0160208091040260200160405190810160405280929190818152602001828054611870906134bd565b80156118bd5780601f10611892576101008083540402835291602001916118bd565b820191906000526020600020905b8154815290600101906020018083116118a057829003601f168201915b50505091835250506002820154602082015260038083015460409092019160ff16908111156118ee576118ee6134a7565b60038111156118ff576118ff6134a7565b81526020016003820160019054906101000a900460ff166001811115611927576119276134a7565b6001811115611938576119386134a7565b9052509050600181606001516003811115611955576119556134a7565b146119725760405162461bcd60e51b815260040161056590613621565b336000908152600460205260408120600201549061199082856136c4565b3360009081526004602052604081206002018690559091505b818110156117fe57600060405180608001604052806001600081546119cd90613717565b919050819055815260200186600001516001600160a01b031681526020018660200151815260200186608001516001811115611a0b57611a0b6134a7565b905260018054600090815260086020908152604091829020845181559084015192810180546001600160a01b0319166001600160a01b039094169390931790925582015191925082916002820190611a639082613546565b50606082015160038201805460ff191660018381811115611a8657611a866134a7565b021790555050336000908152600a6020526040812060808801519092506001811115611ab457611ab46134a7565b6001811115611ac557611ac56134a7565b81526020808201929092526040016000908120600180548254918201835591835292909120909101555080611af981613717565b9150506119a9565b6001600160a01b038082166000908152600460209081526040808320815160a08101909252805490941681526001840180549394859492939092908401919061041d906134bd565b6060611b98600c83604051611b5e9190613605565b90815260405190819003602090810182205460601b6001600160601b03191690820152603401604051602081830303815290604052610c46565b92915050565b336000908152600560209081526040808320815160e0810190925280546001600160a01b031682526001810180549293919291840191611bdd906134bd565b80601f0160208091040260200160405190810160405280929190818152602001828054611c09906134bd565b8015611c565780601f10611c2b57610100808354040283529160200191611c56565b820191906000526020600020905b815481529060010190602001808311611c3957829003601f168201915b5050509183525050600282015460209091019060ff166003811115611c7d57611c7d6134a7565b6003811115611c8e57611c8e6134a7565b81526003820154602082015260048201546040820152600582015460608201526006909101546080909101529050600281604001516003811115611cd457611cd46134a7565b14611cf15760405162461bcd60e51b815260040161056590613621565b600082118015611d055750818160a0015110155b8015611d15575081816080015110155b611d585760405162461bcd60e51b81526020600482015260146024820152734e6f7420456e6f75676820696e76656e746f727960601b6044820152606401610565565b60005b82811015611f985781516001600160a01b03166000908152600a6020908152604080832083805290915281206080840151600190611d9a9085906136c4565b611da491906136c4565b81548110611db457611db4613679565b60009182526020808320919091015485516001600160a01b03168352600a82526040808420848052909252912080549192509080611df457611df46136d7565b60008281526020808220600019908401810183905590920190925584516001600160a01b03168252600a8152604080832060018085529252822060a0860151909190611e419086906136c4565b611e4b91906136c4565b81548110611e5b57611e5b613679565b60009182526020808320919091015486516001600160a01b03168352600a8252604080842060018552909252912080549192509080611e9c57611e9c6136d7565b6001900381819060005260206000200160009055905560006040518060a001604052806000808154611ecd90613717565b9182905550815260208082018690526040808301869052336060808501919091528983015160809485015260008054815260078452829020855181559285015160018401559084015160028301558301516003820180546001600160a01b0319166001600160a01b039092169190911790559082015191925082916004820190611f579082613546565b5050336000908152600b60209081526040822082548154600181018355918452919092209091015550839250611f909150829050613717565b915050611d5b565b503360009081526005602081905260408220018054849290611fbb9084906136c4565b90915550503360009081526005602052604081206004018054849290611fe29084906136c4565b90915550503360009081526005602052604081206006018054849290612009908490613704565b90915550505050565b80600061201f8482613704565b90506000826001600160a01b03168260405160006040518083038185875af1925050503d806000811461206e576040519150601f19603f3d011682016040523d82523d6000602084013e612073565b606091505b50509050806117fe5760405162461bcd60e51b815260206004820152601260248201527110d85b9b9bdd0814d95b9908105b5bdd5b9d60721b6044820152606401610565565b60408051808201909152600381526226a92360e91b6020918201528151908201207f9d170e6838be4048d91463a22ca3a4154822348871b6879e13574962642506c21480612147575060408051808201909152600481526310d1505560e21b6020918201528151908201207fa5e12ef0fbe32df3b63077a2d51ed586a068c9dfbabad969db83d35afe8c07df145b1561263357600060098260405161215e9190613605565b9081526020016040518091039020805480602002602001604051908101604052809291908181526020016000905b828210156121e95760008481526020908190206040805160808101825260048602909201805483526001808201546001600160a01b031684860152600282015492840192909252600301546060830152908352909201910161218c565b505050509050805160010361262f576009826040516122089190613605565b9081526020016040518091039020805480612225576122256136d7565b6000828152602081206004600019909301928302018181556001810180546001600160a01b031916905560028101829055600301819055915581518290829061227057612270613679565b602002602001015160400151905060008260008151811061229357612293613679565b6020026020010151602001519050600060046000600c876040516122b79190613605565b9081526040805160209281900383019020546001600160a01b0316835290820192909252016000908120600201548551909250859082906122fa576122fa613679565b602002602001015160600151905060008285116123175784612319565b825b90508085111561234d5761234d8261233183886136c4565b61233b91906136a5565b610a1490670de0b6b3a76400006136a5565b61239a61235a82846136a5565b61236c90670de0b6b3a76400006136a5565b600c8960405161237c9190613605565b908152604051908190036020019020546001600160a01b0316612012565b8060056000886000815181106123b2576123b2613679565b6020026020010151602001516001600160a01b03166001600160a01b0316815260200190815260200160002060040160008282546123f09190613704565b925050819055506000600a6000600c8a60405161240d9190613605565b9081526040805160209281900383019020546001600160a01b0316835282820193909352908201600090812081805282528290208054835181840281018401909452808452909183018282801561248357602002820191906000526020600020905b81548152602001906001019080831161246f575b5050505050905060005b828110156125da5785600860008460016124a7868b6136c4565b6124b191906136c4565b815181106124c1576124c1613679565b60209081029190910181015182528181019290925260409081016000908120600190810180546001600160a01b0319166001600160a01b03968716179055938a168152600a8352818120818052909252902090839061252084896136c4565b61252a91906136c4565b8151811061253a5761253a613679565b6020908102919091018101518254600181018455600093845291832090910155604051600a9190600c9061256f908d90613605565b9081526040805160209281900383019020546001600160a01b03168352828201939093529082016000908120818052909152208054806125b1576125b16136d7565b6001900381819060005260206000200160009055905580806125d290613717565b91505061248d565b506125e582856136c4565b93508360046000600c8b6040516125fc9190613605565b9081526040805160209281900383019020546001600160a01b031683529082019290925201600020600201555050505050505b5050565b604080518082019091526007815266566564616e746160c81b6020918201528151908201207ffc0b689f64f656fa2d076bb9d2af48cc437a79099d5a898d90bcbc34c7ba857e016131485760006009826040516126909190613605565b9081526020016040518091039020805480602002602001604051908101604052809291908181526020016000905b8282101561271b5760008481526020908190206040805160808101825260048602909201805483526001808201546001600160a01b03168486015260028201549284019290925260030154606083015290835290920191016126be565b505050509050805160020361262f5760008160008151811061273f5761273f613679565b602002602001015160400151905060008260018151811061276257612762613679565b60200260200101516040015190506000600560008560008151811061278957612789613679565b6020026020010151602001516001600160a01b03166001600160a01b03168152602001908152602001600020600401549050600060056000866001815181106127d4576127d4613679565b6020026020010151602001516001600160a01b03166001600160a01b031681526020019081526020016000206004015490506009866040516128169190613605565b9081526020016040518091039020805480612833576128336136d7565b6000828152602081206004600019909301928302018181556001810180546001600160a01b03191690556002810182905560030155905560405160099061287b908890613605565b9081526020016040518091039020805480612898576128986136d7565b6000828152602081206004600019909301928302018181556001810180546001600160a01b03191690556002810182905560030155905581158015906128de5750600081115b6129605760405162461bcd60e51b815260206004820152604760248201527f4269642063616e6e6f742070726f6365656420666169726c792c20426f74682060448201527f706172746965732073686f756c642068617665206e6563657373617279206d6160648201526674657269616c7360c81b608482015260a401610565565b600060046000600c896040516129769190613605565b9081526040805160209281900383019020546001600160a01b03168352908201929092520160009081206002015491508584116129b357836129b5565b855b905060008584116129c657836129c8565b855b90506000600a6000600c8c6040516129e09190613605565b9081526040805160209281900383019020546001600160a01b0316835282820193909352908201600090812060018252825282902080548351818402810184019094528084529091830182828015612a5757602002820191906000526020600020905b815481526020019060010190808311612a43575b5050505050905088600181518110612a7157612a71613679565b60200260200101516060015189600081518110612a9057612a90613679565b6020026020010151606001511115612ada57838311612aaf5782612ab1565b835b9250612abd83856136c4565b8211612ac95781612ad3565b612ad383856136c4565b9150612b0e565b838211612ae75781612ae9565b835b9150612af582856136c4565b8311612b015782612b0b565b612b0b82856136c4565b92505b60005b83811015612ce25789600081518110612b2c57612b2c613679565b60200260200101516020015160086000846001858a612b4b91906136c4565b612b5591906136c4565b81518110612b6557612b65613679565b6020026020010151815260200190815260200160002060010160006101000a8154816001600160a01b0302191690836001600160a01b03160217905550600a60008b600081518110612bb957612bb9613679565b6020026020010151602001516001600160a01b03166001600160a01b031681526020019081526020016000206000600180811115612bf957612bf96134a7565b6001811115612c0a57612c0a6134a7565b81526020019081526020016000208260018388612c2791906136c4565b612c3191906136c4565b81518110612c4157612c41613679565b6020908102919091018101518254600181018455600093845291832090910155604051600a9190600c90612c76908f90613605565b9081526040805160209281900383019020546001600160a01b031683528282019390935290820160009081206001825290915220805480612cb957612cb96136d7565b600190038181906000526020600020016000905590558080612cda90613717565b915050612b11565b50612ced83856136c4565b935060005b82811015612ec35789600181518110612d0d57612d0d613679565b60200260200101516020015160086000846001858a612d2c91906136c4565b612d3691906136c4565b81518110612d4657612d46613679565b6020026020010151815260200190815260200160002060010160006101000a8154816001600160a01b0302191690836001600160a01b03160217905550600a60008b600181518110612d9a57612d9a613679565b6020026020010151602001516001600160a01b03166001600160a01b031681526020019081526020016000206000600180811115612dda57612dda6134a7565b6001811115612deb57612deb6134a7565b81526020019081526020016000208260018388612e0891906136c4565b612e1291906136c4565b81518110612e2257612e22613679565b6020908102919091018101518254600181018455600093845291832090910155604051600a9190600c90612e57908f90613605565b9081526040805160209281900383019020546001600160a01b031683528282019390935290820160009081206001825290915220805480612e9a57612e9a6136d7565b600190038181906000526020600020016000905590558080612ebb90613717565b915050612cf2565b50612ece82856136c4565b935082600560008b600081518110612ee857612ee8613679565b6020026020010151602001516001600160a01b03166001600160a01b031681526020019081526020016000206005016000828254612f269190613704565b9250508190555081600560008b600181518110612f4557612f45613679565b6020026020010151602001516001600160a01b03166001600160a01b031681526020019081526020016000206005016000828254612f839190613704565b925050819055508360046000600c8d604051612f9f9190613605565b9081526040805160209281900383019020546001600160a01b031683529082019290925201600020600201558851613063908a906001908110612fe457612fe4613679565b60200260200101516060015183612ffb91906136a5565b61300d90670de0b6b3a76400006136a5565b8a60008151811061302057613020613679565b6020026020010151606001518561303791906136a5565b61304990670de0b6b3a76400006136a5565b6130539190613704565b600c8c60405161237c9190613605565b828811156130d9576130d98960008151811061308157613081613679565b602002602001015160600151848a61309991906136c4565b6130a391906136a5565b6130b590670de0b6b3a76400006136a5565b8a6000815181106130c8576130c8613679565b602002602001015160200151612012565b8187111561313e5761313e896001815181106130f7576130f7613679565b602002602001015160600151838961310f91906136c4565b61311991906136a5565b61312b90670de0b6b3a76400006136a5565b8a6001815181106130c8576130c8613679565b5050505050505050505b50565b6040518060c001604052806006905b606081526020019060019003908161315a5790505090565b634e487b7160e01b600052604160045260246000fd5b60006001600160401b03808411156131a2576131a2613172565b604051601f8501601f19908116603f011681019082821181831017156131ca576131ca613172565b816040528093508581528686860111156131e357600080fd5b858560208301376000602087830101525050509392505050565b600082601f83011261320e57600080fd5b61321d83833560208501613188565b9392505050565b60006020828403121561323657600080fd5b81356001600160401b0381111561324c57600080fd5b613258848285016131fd565b949350505050565b60006020828403121561327257600080fd5b5035919050565b80356001600160a01b038116811461329057600080fd5b919050565b6000806000606084860312156132aa57600080fd5b6132b384613279565b925060208401356001600160401b038111156132ce57600080fd5b6132da868287016131fd565b9250506040840135600281106132ef57600080fd5b809150509250925092565b60006020828403121561330c57600080fd5b81356001600160401b0381111561332257600080fd5b8201601f8101841361333357600080fd5b61325884823560208401613188565b60005b8381101561335d578181015183820152602001613345565b50506000910152565b6000815180845261337e816020860160208601613342565b601f01601f19169290920160200192915050565b60208152600061321d6020830184613366565b602080825260009060e0830183820185845b60068110156133e657601f198785030183526133d4848351613366565b935091840191908401906001016133b7565b50919695505050505050565b6000806040838503121561340557600080fd5b61340e83613279565b915060208301356001600160401b0381111561342957600080fd5b613435858286016131fd565b9150509250929050565b60008060006060848603121561345457600080fd5b83356001600160401b0381111561346a57600080fd5b613476868287016131fd565b9660208601359650604090950135949350505050565b60006020828403121561349e57600080fd5b61321d82613279565b634e487b7160e01b600052602160045260246000fd5b600181811c908216806134d157607f821691505b6020821081036134f157634e487b7160e01b600052602260045260246000fd5b50919050565b601f82111561354157600081815260208120601f850160051c8101602086101561351e5750805b601f850160051c820191505b8181101561353d5782815560010161352a565b5050505b505050565b81516001600160401b0381111561355f5761355f613172565b6135738161356d84546134bd565b846134f7565b602080601f8311600181146135a857600084156135905750858301515b600019600386901b1c1916600185901b17855561353d565b600085815260208120601f198616915b828110156135d7578886015182559484019460019091019084016135b8565b50858210156135f55787850151600019600388901b60f8161c191681555b5050505050600190811b01905550565b60008251613617818460208701613342565b9190910192915050565b60208082526012908201527113595d1a1bd908139bdd08105b1b1bddd95960721b604082015260600190565b60208082526012908201527113595d1a1bd9081b9bdd08105b1b1bddd95960721b604082015260600190565b634e487b7160e01b600052603260045260246000fd5b634e487b7160e01b600052601160045260246000fd5b60008160001904831182151516156136bf576136bf61368f565b500290565b81810381811115611b9857611b9861368f565b634e487b7160e01b600052603160045260246000fd5b6000816136fc576136fc61368f565b506000190190565b80820180821115611b9857611b9861368f565b6000600182016137295761372961368f565b5060010190565b60008351613742818460208801613342565b600160fd1b9083019081528351613760816001840160208801613342565b0160010194935050505056fe43617220426f6479204f776e657273686970207665726966696564207375636365737366756c6c7954797265204f776e657273686970207665726966696564207375636365737366756c6c79436172206f776e657273686970207665726966696564207375636365737366756c6c79a264697066735822122061f048603bd44d5f5c7f2727aecee525c46db66c03591b77a9db50a3262f2d0664736f6c63430008100033",
  "immutableReferences": {},
  "source": "// SPDX-License-Identifier: MIT\npragma solidity >=0.7.0 <0.9.0;\ncontract SupplyChain {\n    //declarations of data type and structs\n    enum Role {\n        DEF,\n        SUP,\n        MANF,\n        CUST\n    }\n    enum Type {\n        TYRE,\n        BODY\n    }\n\n    uint256 private productID;\n    uint256 private materialID;\n    uint256 private bidID;\n    address private isOwner;\n\n    struct supplier {\n        address uid;\n        string name;\n        uint256 limit;\n        Role role;\n        Type typ;\n    }\n\n    struct manufacturer {\n        address uid;\n        string name;\n        Role role;\n        uint256 price;\n        uint256 numTyres;\n        uint256 numBody;\n        uint256 numProduct;\n    }\n\n    struct customer {\n        address uid;\n        string name;\n        Role role;\n    }\n\n    struct material {\n        uint256 uid;\n        address owner;\n        string brand;\n        Type typ;\n    }\n\n    struct product {\n        uint256 uid;\n        uint256 tyreID;\n        uint256 bodyID;\n        address owner;\n        string brand;\n    }\n\n    struct bid {\n        uint256 uid;\n        address bidder;\n        uint256 quantity;\n        uint256 price;\n    }\n\n    //mappings required\n    mapping(address => supplier) private suppliers;\n    mapping(address => manufacturer) private manufacturers;\n    mapping(address => customer) private customers;\n    mapping(uint256 => product) private products;\n    mapping(uint256 => material) private materials;\n    mapping(string => bid[]) private bid_map;\n    mapping(address => mapping(Type => uint256[])) private material_map;\n    mapping(address => uint256[]) private product_map;\n    mapping(string => address) public name2Add;\n\n\n    constructor() {\n        isOwner = msg.sender;\n    }\n\nfunction toString(bytes memory data) public pure returns(string memory) {\n    bytes memory alphabet = \"0123456789abcdef\";\n\n    bytes memory str = new bytes(2 + data.length * 2);\n    str[0] = \"0\";\n    str[1] = \"x\";\n    for (uint i = 0; i < data.length; i++) {\n        str[2+i*2] = alphabet[uint(uint8(data[i] >> 4))];\n        str[3+i*2] = alphabet[uint(uint8(data[i] & 0x0f))];\n    }\n    return string(str);\n}\n\n\n    function addManufacturer(address uid, string memory name) public {\n        /*\n            Adds a new manufacturer to the supply chain\n            Input: uid, name\n        */\n        require(msg.sender == isOwner, \"Method not Allowed\");\n        manufacturer memory m = manufacturer(uid, name, Role.MANF, 0, 0, 0, 0);\n        manufacturers[uid] = m;\n        name2Add[name] = uid;\n    }\n\n    function getUID(string memory name) view public returns (string memory){\n        return toString(abi.encodePacked(name2Add[name]));\n    }\n\n    function addSupplier(address uid, string memory name, Type part) public {\n        /*\n            Adds a new supplier to the supplychain\n            Input: uid, name, part-carbody or tyre\n        */\n        require(msg.sender == isOwner, \"Method not Allowed\");\n        supplier memory s = supplier(uid, name, 0, Role.SUP, part);\n        suppliers[uid] = s;\n        name2Add[name] = uid;\n    }\n\n\n    function addCustomer(string memory name) public {\n        /*\n            Add new Customer\n            Input: Name of the customer\n        */\n        customer memory c = customer(msg.sender,name,Role.CUST);\n        customers[msg.sender] = c;\n    }\n\n    \n    function set_limit(uint256 val) public {\n        /*\n            Set limit on the amount of suppliers and creates materials\n            Input: value to set in limit\n        */\n        supplier memory temp = suppliers[msg.sender];\n        require(temp.role == Role.SUP, \"Method Not Allowed\");\n        uint256 prev_limit = suppliers[msg.sender].limit;\n        uint256 final_limit = val - prev_limit;\n        suppliers[msg.sender].limit = val;\n        for (uint256 i = 0; i < final_limit; i++) {\n            material memory m = material(\n                ++materialID,\n                temp.uid,\n                temp.name,\n                temp.typ\n            );\n            materials[materialID] = m;\n            material_map[msg.sender][temp.typ].push(materialID);\n        }\n    }\n\n    \n    function set_bids( string memory sup_name,uint256 price,uint256 quantity) public payable {\n        /*\n            Manufacturer can set bids, it is stored in a bid_map and gets a unique bidID\n            Input: supplier name, price, quantity\n        */\n        manufacturer memory temp = manufacturers[msg.sender];\n        require(temp.role == Role.MANF, \"Method Not Allowed\");\n        if(get_limit_name(sup_name) == 0){\n            sendmoney(msg.value, msg.sender);\n            require(false,\"Supplyer limit exhasted\");\n        }\n        require(msg.value >= quantity*price*(1 ether),\"Insufficient balance\");\n        if(msg.value > quantity*price*(1 ether))\n            sendmoney(msg.value - quantity*price*(1 ether), msg.sender);\n        for (uint256 i = 0; i < bid_map[sup_name].length; i++) {\n            require(bid_map[sup_name][i].bidder != msg.sender,\"Bidder Already Placed\");\n        }\n        bid memory b = bid(++bidID, temp.uid, quantity, price);\n        bid_map[sup_name].push(b);\n        resource_allocator(sup_name);\n        \n    }\n\n    \n    function resource_allocator(string memory sup_name) internal {\n        /*\n            Resource Allocator Algorithm - used by Smart Contract\n            Input: supplier name\n        */\n\n        //check the hashed values to compare strings for Tyres Suppliers\n        if (\n            keccak256(bytes(sup_name)) == keccak256(bytes(\"MRF\")) ||\n            keccak256(bytes(sup_name)) == keccak256(bytes(\"CEAT\"))\n        ) {\n            bid[] memory bids = bid_map[sup_name];\n            //no competitor for resources\n            if (bids.length == 1) {\n                bid_map[sup_name].pop();\n\n                uint256 quant_bid = bids[0].quantity;\n                address bidder = bids[0].bidder;\n                uint256 sup_limit = suppliers[name2Add[sup_name]].limit;\n                uint256 price = bids[0].price;\n                uint256 final_quant = quant_bid > sup_limit\n                    ? sup_limit\n                    : quant_bid;\n                if(quant_bid > final_quant )\n                    sendmoney((quant_bid - final_quant)*(price)*(1 ether), msg.sender);\n                sendmoney(price*final_quant*(1 ether), name2Add[sup_name]);\n                manufacturers[bids[0].bidder].numTyres += final_quant;\n                uint256[] memory mids = material_map[name2Add[sup_name]][\n                    Type.TYRE\n                ];\n                for (uint256 i = 0; i < final_quant; i++) {\n                    materials[mids[sup_limit - i - 1]].owner = bidder;\n                    material_map[bidder][Type.TYRE].push(\n                        mids[sup_limit - i - 1]\n                    );\n                    material_map[name2Add[sup_name]][Type.TYRE].pop();\n                }\n                sup_limit -= final_quant;\n                suppliers[name2Add[sup_name]].limit = sup_limit;\n                \n            }\n        } else if (keccak256(bytes(sup_name)) == keccak256(bytes(\"Vedanta\"))) {\n            bid[] memory bids = bid_map[sup_name];\n\n            //there are 2 manufacturers for same supplier\n            if (bids.length == 2) {\n                uint256 quant_bid1 = bids[0].quantity;\n                uint256 quant_bid2 = bids[1].quantity;\n                uint256 numtyre1 = manufacturers[bids[0].bidder].numTyres;\n                uint256 numtyre2 = manufacturers[bids[1].bidder].numTyres;\n                bid_map[sup_name].pop();\n                bid_map[sup_name].pop();\n                require(\n                    numtyre1 > 0 && numtyre2 > 0,\n                    \"Bid cannot proceed fairly, Both parties should have necessary materials\"\n                );\n                uint256 sup_limit = suppliers[name2Add[sup_name]].limit;\n                uint256 final_bid1 = numtyre1 > quant_bid1\n                    ? quant_bid1\n                    : numtyre1;\n                uint256 final_bid2 = numtyre2 > quant_bid2\n                    ? quant_bid2\n                    : numtyre2;\n                uint256[] memory pids = material_map[name2Add[sup_name]][\n                    Type.BODY\n                ];\n\n                if (bids[0].price > bids[1].price) {\n                    //look at price\n                    final_bid1 = final_bid1 > sup_limit\n                        ? sup_limit\n                        : final_bid1;\n                    final_bid2 = final_bid2 > (sup_limit - final_bid1)\n                        ? sup_limit - final_bid1\n                        : final_bid2;\n\n                } else {\n                    final_bid2 = final_bid2 > sup_limit\n                        ? sup_limit\n                        : final_bid2;\n\n                    final_bid1 = final_bid1 > (sup_limit - final_bid2)\n                        ? sup_limit - final_bid2\n                        : final_bid1;\n                }\n                for (uint256 i = 0; i < final_bid1; i++) {\n                    materials[pids[sup_limit - i - 1]].owner = bids[0].bidder;\n                    material_map[bids[0].bidder][Type.BODY].push(\n                        pids[sup_limit - i - 1]\n                    );\n                    material_map[name2Add[sup_name]][Type.BODY].pop();\n                }\n                sup_limit -= final_bid1;\n                for (uint256 i = 0; i < final_bid2; i++) {\n                    materials[pids[sup_limit - i - 1]].owner = bids[1].bidder;\n                    material_map[bids[1].bidder][Type.BODY].push(\n                        pids[sup_limit - i - 1]\n                    );\n                    material_map[name2Add[sup_name]][Type.BODY].pop();\n                }\n                sup_limit -= final_bid2;\n                manufacturers[bids[0].bidder].numBody += final_bid1;\n                manufacturers[bids[1].bidder].numBody += final_bid2;\n                suppliers[name2Add[sup_name]].limit = sup_limit;\n                sendmoney(final_bid1*bids[0].price*(1 ether) + final_bid2*bids[1].price*(1 ether), name2Add[sup_name]);\n                //return excess ether\n                if(quant_bid1 > final_bid1)\n                    sendmoney((quant_bid1 - final_bid1)*(bids[0].price)*(1 ether), bids[0].bidder);\n                if(quant_bid2 > final_bid2)\n                    sendmoney((quant_bid2 - final_bid2)*(bids[1].price)*(1 ether), bids[1].bidder);\n            }\n        }\n    }\n    \n    function set_price(uint256 val) public {\n        /*\n            Manufacturer sets price to the product\n            Input: Retail price\n        */\n        require(\n            manufacturers[msg.sender].role == Role.MANF,\n            \"Method Not Allowed\"\n        );\n        manufacturers[msg.sender].price = val;\n    }\n\n    \n    function make_product(uint256 quantity) public {\n        /*\n            Creates the product - used by manufacturer. Assigns unique UID, sets tyre ID and body ID to the product\n            Input: quantity\n        */\n        manufacturer memory temp = manufacturers[msg.sender];\n        require(temp.role == Role.MANF, \"Method Not Allowed\");\n        require(\n            quantity > 0 &&\n                temp.numBody >= quantity &&\n                temp.numTyres >= quantity,\n            \"Not Enough inventory\"\n        );\n\n        for (uint256 i = 0; i < quantity; i++) {\n            uint256 tyr_id = material_map[temp.uid][Type.TYRE][\n                temp.numTyres - i - 1\n            ];\n            material_map[temp.uid][Type.TYRE].pop();\n            uint256 body_id = material_map[temp.uid][Type.BODY][\n                temp.numBody - i - 1\n            ];\n            material_map[temp.uid][Type.BODY].pop();\n            product memory p = product({\n                uid: ++productID,\n                owner: msg.sender,\n                brand: temp.name,\n                tyreID: tyr_id,\n                bodyID: body_id\n            });\n            products[productID] = p;\n            product_map[msg.sender].push(productID);\n        }\n        manufacturers[msg.sender].numBody -= quantity;\n        manufacturers[msg.sender].numTyres -= quantity;\n        manufacturers[msg.sender].numProduct += quantity;\n    }\n\n    function buy_product(string memory sname) public payable {\n        /*\n            Lets buyer buy the product. Buyer sends money required to buy product to manufacturer\n            Input: manufacturer source name\n        */\n        manufacturer memory m = manufacturers[name2Add[sname]];\n        require(m.numProduct > 0, \"No Cars Available\");\n        require(msg.value >= m.price * (1 ether), \"Need More Ether\");\n        if(msg.value > m.price*(1 ether)){\n            sendmoney(msg.value - m.price*(1 ether), msg.sender);\n        }\n        uint256 pid = product_map[m.uid][m.numProduct - 1];\n        product_map[m.uid].pop();\n\n        //buyer has purchased, now ownership transfer\n        manufacturers[name2Add[sname]].numProduct--;\n        product_map[msg.sender].push(pid);\n        products[pid].owner = msg.sender;\n        product memory p = products[pid];\n\n        materials[p.tyreID].owner = msg.sender;\n        materials[p.bodyID].owner = msg.sender;\n\n    }\n\n    //checks validity of the product, and the items supplied by the supplier\n    function verify(uint id) public view returns (string[6] memory){\n        string[6] memory  response;\n        if(products[id].owner==msg.sender){\n            response[0]=\"Car ownership verified successfully\";\n        }\n        else{\n            response[0]=\"Car ownership not verified\";\n        }\n        string memory a=products[id].brand;\n        string memory b=\"Car brand is\";\n        response[1]=string(abi.encodePacked(b,' ',a));\n        uint tyreid=products[id].tyreID;\n        uint bodyid=products[id].bodyID;\n        if(materials[tyreid].owner==msg.sender){\n            response[2]=\"Tyre Ownership verified successfully\";\n        }\n        else{\n            response[2]=\"Tyre Ownership not verified\";\n        }\n        a=materials[tyreid].brand;\n        b=\"Tyre brand is\";\n        response[3]=string(abi.encodePacked(b,' ',a));\n\n        if(materials[bodyid].owner==msg.sender){\n            response[4]=\"Car Body Ownership verified successfully\";\n        }\n        else{\n            response[4]=\"Car body ownership not verified\";\n        }\n        a=materials[bodyid].brand;\n        b=\"Car body brand is\";\n        response[5]=string(abi.encodePacked(b,' ',a));\n        return response;\n    }\n\n\n    function get_limit_name(string memory sup_name) public view returns (uint256) {\n        supplier memory temp = suppliers[name2Add[sup_name]];\n        return temp.limit;\n    }\n\n    function get_limit(address sup_add) public view returns (uint256) {\n        supplier memory temp = suppliers[sup_add];\n        return temp.limit;\n    }\n\n    function get_pid() public view returns (uint256){\n        return product_map[msg.sender][0];\n    }\n\n    function get_price(string memory name) public view returns (uint256){\n        return manufacturers[name2Add[name]].price;\n    }\n\n    function get_role() public view returns (uint256){\n        if(isOwner == msg.sender){\n            return 0;\n        }else if(suppliers[msg.sender].role == Role.SUP){\n            return 1;\n        }else if(manufacturers[msg.sender].role == Role.MANF){\n            return 2;\n        }\n        return 3;\n    }\n\n    function sendmoney(uint amount,address payaddr) internal {\n        /*\n            Internal function to send ether to accounts from contract;\n        */\n        address payable manuf = payable(payaddr);\n        uint money;\n        money = money + amount ;\n        (bool sent,) = manuf.call{value:money}(\"\");\n        require(sent, \"Cannot Send Amount\");\n        \n    }\n}\n\n/*\nTruffle console:\n\nvar bcs;\nSupplyChain.deployed().then(function(instance) { bcs = instance; });\n\nbcs.addManufacturer(accounts[1],\"Maruti\")\nbcs.addManufacturer(accounts[2],\"TATA\")\nbcs.addSupplier(accounts[3],\"Vedanta\",1)\nbcs.addSupplier(accounts[4],\"MRF\",0)\nbcs.addSupplier(accounts[5],\"CEAT\",0)\nbcs.set_limit(14,{ from: accounts[3]})\nbcs.set_limit(12,{ from: accounts[4]})\nbcs.set_limit(10,{ from: accounts[5]})\n\nbcs.set_bids(\"MRF\",1,8,{ from: accounts[2],value:9000000000000000000})\nbcs.get_num(\"TATA\",1)\n\nbcs.make_product(8,{ from: accounts[1]})\nbcs.set_bids(\"CEAT\",1,8,{ from: accounts[1],value:9000000000000000000})\n\nbcs.set_bids(\"Vedanta\",2,10,{ from: accounts[1], value :20000000000000000000})\nbcs.set_bids(\"Vedanta\",1,3,{ from: accounts[2],value : 3000000000000000000})\n\nbcs.get_limit(accounts[5])\nbcs.get_limit(accounts[4])\nbcs.get_limit(accounts[3])\nbcs.make_product(3,{from : accounts[1]})\nbcs.set_price(2,{from : accounts[1]})\nbcs.addCustomer(\"Kshitij\",{from : accounts[9]})\nbcs.buy_product(\"TATA\",{from : accounts[9] , value : })\nbcs.make_product(3,{from : accounts[1]})\nbcs.get_pid({from : accounts[9]})\nbcs.verify({from : accounts[9]})\n\n*/",
  "sourcePath": "/Users/horz/Downloads/react_lives/src/contracts/SupplyChain.sol",
  "compiler": {
    "name": "solc",
    "version": "0.8.16+commit.07a7930e.Emscripten.clang"
  },
  "schemaVersion": "3.4.9",
  "updatedAt": "2022-09-11T14:05:22.166Z",
  "networkType": "ethereum",
  "devdoc": {
    "kind": "dev",
    "methods": {},
    "version": 1
  },
  "userdoc": {
    "kind": "user",
    "methods": {},
    "version": 1
  }
}